:020000040800F2
:100000005004002045010008A70F0008C70E000893
:10001000A50F00088D0100089513000800000000DE
:10002000000000000000000000000000CB0F0008EE
:100030008F01000800000000C90F0008CD0F000864
:100040005F0100085F0100085F0100085F01000810
:100050005F0100085F0100085F0100085F01000800
:100060005F0100085F0100085F0100085F010008F0
:100070005F0100085F0100085F0100085F010008E0
:100080005F0100085F0100085F0100085F010008D0
:100090005F0100085F0100085F0100089901000886
:1000A0005F0100085F0100085F0100085F010008B0
:1000B0005F0100085F0100085F0100085F010008A0
:1000C0005F0100085F0100085F0100085F01000890
:1000D0005F010008891300085F0100085F01000844
:1000E000910100085F0100085F0100085F0100083E
:1000F0005F0100085F0100085F0100085F01000860
:100100005F0100085F0100085F0100085F0100084F
:100110005F0100085F0100085F0100085F0100083F
:100120005F0100085F0100085F0100085F0100082F
:10013000DFF80CD000F018F800480047B5130008AD
:10014000500400200648804706480047FEE7FEE7C7
:10015000FEE7FEE7FEE7FEE7FEE7FEE7FEE7FEE777
:100160004510000831010008064C074D06E0E06824
:1001700040F0010394E8070098471034AC42F6D3EE
:10018000FFF7DAFF4414000864140008FEE7704724
:100190004FF4004000F0CCB8202000F0C9B80000B7
:1001A0002DE9F05F90F821100024022903D00421EA
:1001B0008163012485E001680A6822F00E020A606A
:1001C00001680A6822F001020A603F4E3E4FB215F4
:1001D000DFF8F4C0DFF8F090DFF8ECA0DFF8E8B06B
:1001E000DFF8E4E00168783F13011502ACF1640C1C
:1001F000A9F15009AAF13C0AABF1280BAEF1140E9B
:100200004FF48018B14227D9B9420ED0614512D0BF
:1002100049451DD0514518D0594518D0714501D1D7
:10022000424615E0294EB14201D1012210E0274E8D
:100230001436B14201D110220AE0244E2836B142D0
:1002400006D0224A3C32914201D11A4600E02A46A9
:100250001E49091F0A602BE0B94213D0614517D02F
:10026000494522D051451DD059451DD0714501D178
:1002700042461AE0B14202D14FF0807215E0134EAF
:10028000B14201D1012210E0104E1436B14201D129
:1002900010220AE00D4E2836B14206D00B4A3C32FD
:1002A000914201D11A4600E02A46074980394A6046
:1002B000012180F82110002180F82010416B01B14C
:1002C00088472046BDE8F09F8000024008040240B5
:1002D00070B5044600F036F90546601C02D00448AB
:1002E0000078044400F02EF9401BA042FAD370BD00
:1002F000000000200EB5B0F5004F0DD107A2C823B5
:1003000007CA8DE807000A226946074800F07DFD0C
:100310000421064800F00CF90EBD000074657374EA
:100320002031350D0A0000001000002000140140AB
:10033000044910B50A68024202D00860FFF7DAFFEC
:1003400010BD0000140401402DE9F84FDFF8B8A1FA
:1003500000220AF1040B144601274FF00F090BF19C
:10036000040E00BF0B6807FA04F52B40AB4274D1B2
:10037000DFF898C14E68A6EB0C0866452BD00DDC63
:10038000032E34D005DC36B3012E19D0022E2FD126
:100390001BE0112E16D0122E2AD119E0B8F5881FB5
:1003A00019D006DCB8F5803F15D0B8F5801F1FD1F5
:1003B00011E0B8F5001F0ED0B8F5041F18D10AE0FF
:1003C000CA6815E0CA68121D12E0CA6808320FE058
:1003D000CA680C320CE08A682AB1012A4FF0080280
:1003E00003D0456104E0042202E0056100E0002240
:1003F000FF2B01D8064601E000F104064FEA840510
:1004000001D9A5F12005D6F800C009FA05F82CEAB3
:10041000080C02FA05F54CEA050CC6F800C04D6858
:10042000ED006AD53A4DAE6946F00106AE61AD69A0
:1004300024F0030605F001050095364D06EB050C8A
:10044000DCF80850A6074FEA167809FA08F6B54313
:10045000314EB04202D100261AE04EE02F4EB0429B
:1004600001D1012614E02E4EB04201D102260FE048
:100470002C4EB04201D103260AE02B4EB04201D1EE
:10048000042605E0294EB04201D1052600E00626EB
:1004900006FA08F62E43CCF808604D68DAF80060DA
:1004A000ED03554601D51E4300E09E432E604D6886
:1004B000AD0305D5DBF800601E43CBF8006004E017
:1004C000DBF800509D43CBF800504D68DEF800602B
:1004D000ED02754601D51E4300E09E432E604D6837
:1004E000AD0205D5084D0C352E681E432E6004E084
:1004F000054E0C3635689D433560641C102CFFF4A6
:1005000031AFBDE8F88F0000000401400000111079
:10051000001002400000014000080140000C0140B2
:10052000001001400014014000180140001C01406F
:10053000C2684A40C26070470AB10161704709044D
:10054000FBE70000014880687047000000000020C1
:1005500002488168027811448160704700000020E1
:10056000074810B5016841F010010160032000F058
:100570009DF8002000F006F800F024F8002010BDDF
:100580000020024070B50D4D04464FF47A71287872
:10059000B1FBF0F00A490968B1FBF0F000F02DFB67
:1005A00048B9102C07D200222146501E00F05EF8F8
:1005B00000206C6070BD012070BD000000000020B4
:1005C0000C000020214808B5816941F001018161DA
:1005D000816901F001010091C16941F08051C1615F
:1005E000C06900F080500090032000F05FF8002206
:1005F00011466FF00B0000F039F8002211466FF041
:100600000A0000F033F8002211466FF0090000F0F4
:100610002DF800221146501F00F028F80022114644
:10062000101F00F023F800221146901E00F01EF863
:1006300000221146501E00F019F80548416821F0CB
:10064000E06141F00071416008BD0000001002400F
:100650000000014000F01F0201219140400980008C
:1006600000F1E020C0F8001170470000F0B40E4B1C
:100670001B680C46C3F30223C3F10705042D00D900
:100680000425191D072901D2002300E0DB1E0126E5
:1006900006FA05F1491E214099409E40761E1640FB
:1006A0003143F0BC00F080BC0CED00E0064900F0E6
:1006B000070208684FF6FF03184040EA0220034A89
:1006C00010430860704700000CED00E00000FA05E0
:1006D0002DE9F047DFF83C8105460E46D8F80000CA
:1006E00000F00700B0420CD2D8F8001021F007014A
:1006F0003143C8F80010D8F8000000F00700B042FD
:1007000063D12878444C800705D56068A96820F03B
:10071000F000084360602878C00745D06868012869
:1007200016D02168022816D0890700294DDA6168A1
:1007300021F0030101436160FFF704FF6968074688
:1007400041F2883001290FD00229814619D027E0D3
:1007500021688903E9E78901E7E700BFFFF7F2FEB7
:10076000C11B494501D918E081466068C0F381008A
:100770000128F3D118E000BFFFF7E4FEC11B494593
:100780000BD86068C0F381000228F5D10CE000BFEF
:10079000FFF7D8FEC11B494502D90320BDE8F08709
:1007A000606810F00C0FF3D1D8F80010404601F04B
:1007B0000701B1420BD9016821F007013143016003
:1007C000006800F00700B04201D00120E6E7287879
:1007D000400705D56068E96820F4E0600843606080
:1007E0002878000706D56068296920F4605040EA3F
:1007F000C100606000F03CF86168084AC1F3031171
:10080000515CC840064908600020FFF7BBFE00208D
:10081000C4E7000000200240001002402C14000831
:100820000C00002001480068704700000C00002008
:100830000448054900684968044AC1F30221515C33
:10084000C84070470C000020001002403C14000813
:100850000448054900684968044AC1F3C221515C53
:10086000C84070470C000020001002403C140008F3
:1008700012A185B00FC98DE80F0014A0144A0068BA
:1008800004905168134801F00C03042B10D0082B7E
:100890000ED1C1F38343C9031DF803000AD5516883
:1008A00004AAC1F34041515C0A4A5043B0FBF1F045
:1008B00005B0704708494843FAE700000203040501
:1008C000060708090A0B0C0D0E0F1010010200009C
:1008D0000010024000127A0000093D002DE9F84F97
:1008E00004460078B94DC00748D06868C0F381005D
:1008F000012807D06868C0F38100022809D1686820
:10090000C00306D52868800338D5606800286FD0FA
:1009100034E06068B0F5803F0BD010B1B0F5A02F87
:1009200011D0286820F480302860286820F48020C6
:1009300002E0286840F480302860606888B1FFF7E2
:1009400001FE064609E0286840F480202860F0E7B0
:10095000FFF7F8FD801B642875D828688003F7D559
:100960000CE0FFF7EFFD064605E000BFFFF7EAFDEC
:10097000801B6428F0D828688003F7D42078944E30
:1009800080074FF001094FF000083BD5686810F070
:100990000C0F07D06868C0F38100022809D168688D
:1009A000C00306D42868800714D5206901281FD108
:1009B00010E02069B0B1C6F80090FFF7C3FD07460C
:1009C00005E000BFFFF7BEFDC01B0228C4D82868A1
:1009D0008007F7D52868616920F0F80040EAC10077
:1009E00028600FE0C6F80080FFF7ACFD074606E080
:1009F000E9E000BFFFF7A6FDC01B022823D8286846
:100A00008007F7D4207800072CD57248A169D9B1A6
:100A1000C0F80090FFF796FD074604E0FFF792FD4F
:100A2000C01B02280FD8686A8007F7D56A484FF4C0
:100A3000FA510068B0FBF1F0009000BF0098411E31
:100A40000091FAD20EE080E0C0F80080FFF77AFD56
:100A5000074604E0FFF776FDC01B022875D8686AD8
:100A60008007F7D42078400760D5E8690027C000E8
:100A700008D4E86940F08050E861E869012700F097
:100A80008050009055480168C90513D40168834619
:100A900041F480710160FFF755FD824606E000BF1A
:100AA000FFF750FDA0EB0A0064284ED8DBF80000E9
:100AB000C005F5D5E06801280AD008B1052813D093
:100AC000286A20F001002862286A20F0040002E071
:100AD000286A40F001002862E06841F2883B98B142
:100AE000FFF730FD82460BE0286A40F004002862E0
:100AF000EEE700BFFFF726FDA0EB0A0159455AD8E3
:100B0000286A8007F6D50CE0FFF71CFD824605E059
:100B1000FFF718FDA0EB0A0159454CD8286A800759
:100B2000F6D41FB1E86920F08050E861E06988B32D
:100B30006968C1F38101022945D00228C6F86080A6
:100B400004D0FFF7FFFC044638E034E0FFF7FAFC7E
:100B5000074604E0FFF7F6FCC01B02282BD82868E4
:100B60008001F7D4206AB0F5803F05D16868A1689C
:100B700020F4003008436860D4E90801084369683C
:100B800021F4741108436860C6F86090FFF7DAFC3E
:100B9000044606E015E000BFFFF7D4FC001B022866
:100BA00009D828688001F7D50BE000BFFFF7CAFC21
:100BB000001B022802D90320BDE8F88F28688001B5
:100BC000F4D40020F8E70120F6E70000001002400E
:100BD00000004242800442420C00002000700040AD
:100BE0004FF0E0210428086903D020F004000861D8
:100BF000704740F00400FAE7704710B5401EB0F1AE
:100C0000807F01D3012010BD4FF0E02460610F21EF
:100C1000601700F0C9F90020A061072020610020C2
:100C200010BD10B5FFF7E8FF10BD704770B5026842
:100C300004461068D168536910F00F0F50D003F0CC
:100C4000010501F4907635435DD0C20705D0CA0591
:100C500003D5E26B42F00102E263420705D5DA07F1
:100C600003D0E26B42F00202E263820705D5DA07A5
:100C700003D0E26B42F00402E263020705D5DA0713
:100C800003D0E26B42F00802E263E26B002A33D049
:100C9000800604D5880602D5204600F00DFA2068AB
:100CA0004069E16BC0F38010090700D428B32046E7
:100CB00000F0F4F92068416949061AD5416921F02C
:100CC00040014161606BA0B11B494163606BFFF75C
:100CD00067FA002810D0606B416BBDE87040084790
:100CE000830610D58B060ED52046BDE8704000F077
:100CF000E3B92046FFF799FF70BD2046FFF795FF47
:100D00000020E06370BD030606D50B0604D520461F
:100D1000BDE8704000F0D4BA4006F3D54806F1D5DE
:100D2000D168204621F04001D160202184F839109B
:100D300000F0C8F870BD00008D10000870B5040008
:100D400004D094F83900002510B106E0012070BDF0
:100D500084F83850204600F023F8242084F8390025
:100D60002068C16821F40051C160204600F0F0F90C
:100D70002068016921F4904101612068416921F0F6
:100D80002A0141612068C16841F40051C160E563F6
:100D9000202084F8390084F83A00002070BD00005B
:100DA00010B50068154986B0884225D1144881697C
:100DB00041F4804181618069124C00F480400490CC
:100DC0004FF40070009002200190032003906946C8
:100DD0002046FFF7B9FA00212015CDE90001029164
:100DE00069462046FFF7B0FA002211462520FFF79A
:100DF0003DFC2520FFF72EFC06B010BD0038014059
:100E0000001002400008014070472DE9F8430446F5
:100E100090F839001F4616460D46202850D1A5B13E
:100E20009EB194F8380001284AD0012084F8380097
:100E30004FF00008C4F83C80212084F83900FFF707
:100E400081FBA6848146E68426E00120BDE8F88384
:100E5000E08C401EE084A0684B46B0F5805F4FF008
:100E600000024FF080012046009703D000F059FAAD
:100E7000E8B90DE000F055FAC8B928882168C0F338
:100E800008004860206908B16D1C05E0AD1C03E056
:100E9000216815F8010B4860E08C0028D8D14B463A
:100EA000002240212046009700F03BFA08B10320C1
:100EB000CCE7202084F8390084F838800020C5E78A
:100EC0000220C3E77047FEE72DE9F043304885B0C4
:100ED000816941F020018161816901F02001049163
:100EE000816941F010018161816901F01001049173
:100EF000816941F0040181618069DFF8988000F028
:100F000004004FF480760490002231464046FFF7FB
:100F100013FBDFF88490002204214846FFF70CFB06
:100F20001E4D2020CDE900050024694602941C488E
:100F3000FFF70AFA0096022701260397CDE901641C
:100F400069464046FFF700FAF003CDE9000569461F
:100F500002944046FFF7F8F90420CDE90006CDE9F8
:100F6000024769464846FFF7EFF90022114617206D
:100F7000FFF77CFB1720FFF76DFB002211462820AE
:100F8000FFF774FB2820FFF765FB05B0BDE8F08391
:100F90000010024000080140001401400000111040
:100FA00000100140FEE770470907090E002806DA25
:100FB00000F00F0000F1E02080F8141D704700F1F0
:100FC000E02080F8001470477047704710B5FFF7B5
:100FD000BFFABDE81040FFF724BE30B58FB0012145
:100FE0000804CDE900100024029402250491CDE903
:100FF00007504FF4E01009906846FFF76FFC00B10E
:10100000FEE70F20CDE90A054FF48060CDE90C40E2
:1010100002210AA80E94FFF75BFB00B1FEE7FFF781
:1010200001FC4FF47A71B0FBF1F0FFF7E6FD04200C
:10103000FFF7D6FD00221146501EFFF717FB0FB039
:1010400030BD00000D48016841F0010101604168B8
:101050000B4A1140416001680A4A11400160016871
:1010600021F480210160416821F4FE0141604FF4C8
:101070001F0181600449C0030860704700100240EE
:101080000000FFF8FFFFF6FE08ED00E010B5406A33
:101090000021C185C184FFF7C8FD10BD0168CA6881
:1010A00022F49072CA6001684A6922F001024A6122
:1010B000202180F83A10704710B590F83A10222994
:1010C00001D0022010BD8168B1F5805F11D00169A7
:1010D000002901681FD0496801F07F03816A4A1C1A
:1010E00082620B70C18D491E0904090CC18518D09C
:1010F0002BE00269816A002A0268526805D0D2B2E8
:101100000A80816A491C8162ECE7C2F308020A8006
:10111000816A891CF7E74A68816A4B1C83620A70FE
:10112000E0E70168CA6822F02002CA600168CA6864
:1011300022F48072CA6001684A6922F001024A61A1
:10114000202180F83A10FFF75FFE002010BD00005C
:101150002DE9F041044600680169E26821F440513C
:10116000114301612169A06808436169084321684E
:10117000CA6841F20C639A430243CA60206841691D
:10118000A26921F44071114341614C4920686425F2
:10119000322688423CD1FFF75BFB00EBC00101EB3C
:1011A000001061688900B0FBF1F7FFF751FB00EB1D
:1011B000C00101EB00106168B0468900B0FBF1F09E
:1011C000B0FBF5F06FF01801484307EB800106EB28
:1011D0000110B0FBF5F000F0F006FFF739FB00EB73
:1011E000C00101EB001061688900B0FBF1F0B0FBB9
:1011F000F5F006EB0016FFF72BFB00EBC00101EB4F
:10120000001061688900B0FBF1F7FFF721FB3BE0BC
:10121000FFF70EFB00EBC00101EB001061688900D5
:10122000B0FBF1F7FFF704FB00EBC00101EB00108E
:101230006168B0468900B0FBF1F0B0FBF5F06FF0EB
:101240001801484307EB800106EB0110B0FBF5F0F5
:1012500000F0F006FFF7ECFA00EBC00101EB001024
:1012600061688900B0FBF1F0B0FBF5F006EB001609
:10127000FFF7DEFA00EBC00101EB001061688900A6
:10128000B0FBF1F7FFF7D4FA00EBC00101EB00105F
:1012900061688900B0FBF1F0B0FBF5F06FF0180168
:1012A000484307EB800108EB0110B0FBF5F0216823
:1012B00000F00F0030448860BDE8F0810038014044
:1012C00090F83910212901D0022070478168B1F5CA
:1012D000805F016A0BD04A1C026202680978516083
:1012E000C18C491E0904090CC1840ED017E009887D
:1012F0000268C1F30801516001690029016A02D046
:10130000491C0162ECE7891CFBE70168CA6822F00E
:101310008002CA600068C16841F04001C1600020DD
:1013200070472DE9F041984617460E460446069D43
:101330001DE0681C1BD02DB1FFF704F9A0EB0800DD
:10134000A84214D92068C16821F4D071C160206816
:10135000416921F001014161202084F8390084F8BD
:101360003A00002084F838000320BDE8F0812068AE
:10137000006836EA000004D00020B842D9D000202E
:10138000F3E70120F9E700000148FFF74FBC000038
:1013900010000020FEE702E008C8121F08C1002A62
:1013A000FAD170477047002001E001C1121F002AE6
:1013B000FBD170470EB5FFF7D3F8FFF70EFEFFF72E
:1013C00083FD154813490C2201604FF4E13141605F
:1013D00000218160C160C0E904128161C161FFF731
:1013E000ADFC00B1FEE70D4E4FF4FA744FF480757A
:1013F0002046FEF76DFF29463046FFF799F808A210
:10140000C82307CA8DE807000B2269460248FFF788
:10141000FCFCEDE70038014010000020000801400E
:10142000696E207768696C650D0A00000000000095
:101430000000000001020304060708090000000084
:1014400001020304641400080000002010000000E2
:1014500096130008741400081000002040040000D7
:10146000A6130008010000001000000000000000AA
:0414700000A24A0488
:0400000508000131BD
:00000001FF
