:020000040800F2
:1000000050040020450100089B0E0008910D0008D7
:10001000990E00088D01000813120008000000006E
:10002000000000000000000000000000BF0E0008FB
:100030008F01000800000000BD0E0008C10E00087E
:100040005F0100085F0100085F0100085F01000810
:100050005F0100085F0100085F0100085F01000800
:100060005F0100085F0100085F0100085F010008F0
:100070005F0100085F0100085F0100085F010008E0
:100080005F0100085F0100085F0100085F010008D0
:100090005F0100085F0100085F0100085F010008C0
:1000A0005F0100085F0100085F0100085F010008B0
:1000B0005F0100085F0100085F0100085F010008A0
:1000C0005F0100085F0100085F0100085F01000890
:1000D0005F0100085F0100085F0100085F01000880
:1000E0005F0100085F0100085F0100085F01000870
:1000F0005F0100085F0100085F0100085F01000860
:100100005F0100085F0100085F0100085F0100084F
:100110005F0100085F0100085F0100085F0100083F
:100120005F0100085F0100085F0100085F0100082F
:10013000DFF80CD000F018F800480047351200082E
:10014000500400200648804706480047FEE7FEE7C7
:10015000FEE7FEE7FEE7FEE7FEE7FEE7FEE7FEE777
:10016000390F000831010008064C074D06E0E06831
:1001700040F0010394E8070098471034AC42F6D3EE
:10018000FFF7DAFF7412000894120008FEE77047C8
:1001900070B5044600F002F90546601C02D0044820
:1001A0000078044400F0FAF8401BA042FAD370BD76
:1001B000000000202DE9F84FDFF8B8A100220AF175
:1001C000040B144601274FF00F090BF1040E00BF7A
:1001D0000B6807FA04F52B40AB4274D1DFF898C1E5
:1001E0004E68A6EB0C0866452BD00DDC032E34D0F0
:1001F00005DC36B3012E19D0022E2FD11BE0112EB3
:1002000016D0122E2AD119E0B8F5881F19D006DCB5
:10021000B8F5803F15D0B8F5801F1FD111E0B8F5B3
:10022000001F0ED0B8F5041F18D10AE0CA6815E007
:10023000CA68121D12E0CA6808320FE0CA680C32A0
:100240000CE08A682AB1012A4FF0080203D0456108
:1002500004E0042202E0056100E00022FF2B01D847
:10026000064601E000F104064FEA840501D9A5F134
:100270002005D6F800C009FA05F82CEA080C02FAA5
:1002800005F54CEA050CC6F800C04D68ED006AD5CE
:100290003A4DAE6946F00106AE61AD6924F0030641
:1002A00005F001050095364D06EB050CDCF808500D
:1002B000A6074FEA167809FA08F6B543314EB04260
:1002C00002D100261AE04EE02F4EB04201D10126A5
:1002D00014E02E4EB04201D102260FE02C4EB04267
:1002E00001D103260AE02B4EB04201D1042605E0DD
:1002F000294EB04201D1052600E0062606FA08F68E
:100300002E43CCF808604D68DAF80060ED035546DE
:1003100001D51E4300E09E432E604D68AD0305D518
:10032000DBF800601E43CBF8006004E0DBF800500F
:100330009D43CBF800504D68DEF80060ED02754635
:1003400001D51E4300E09E432E604D68AD0205D5E9
:10035000084D0C352E681E432E6004E0054E0C3609
:1003600035689D433560641C102CFFF431AFBDE847
:10037000F88F00000004014000001110001002403E
:100380000000014000080140000C01400010014045
:100390000014014000180140001C01400148806821
:1003A0007047000000000020024881680278114474
:1003B0008160704700000020074810B5016841F0D7
:1003C00010010160032000F091F8002000F006F811
:1003D00000F024F8002010BD0020024070B50D4D43
:1003E00004464FF47A712878B1FBF0F00A490968A5
:1003F000B1FBF0F000F001FB48B9102C07D200224D
:100400002146501E00F052F800206C6070BD0120A3
:1004100070BD0000000000200C000020214808B53D
:10042000816941F001018161816901F0010100915F
:10043000C16941F08051C161C06900F080500090F5
:10044000032000F053F8002211466FF00B0000F07B
:100450002DF8002211466FF00A0000F027F8002264
:1004600011466FF0090000F021F800221146501FDC
:1004700000F01CF800221146101F00F017F80022AF
:100480001146901E00F012F800221146501E00F096
:100490000DF80548416821F0E06141F000714160CC
:1004A00008BD00000010024000000140F0B40E4BF7
:1004B0001B680C46C3F30223C3F10705042D00D9C2
:1004C0000425191D072901D2002300E0DB1E0126A7
:1004D00006FA05F1491E214099409E40761E1640BD
:1004E0003143F0BC00F0DABC0CED00E0064900F04E
:1004F000070208684FF6FF03184040EA0220034A4B
:1005000010430860704700000CED00E00000FA05A1
:100510002DE9F047DFF83C8105460E46D8F800008B
:1005200000F00700B0420CD2D8F8001021F007010B
:100530003143C8F80010D8F8000000F00700B042BE
:1005400063D12878444C800705D56068A96820F0FD
:10055000F000084360602878C00745D0686801282B
:1005600016D02168022816D0890700294DDA616863
:1005700021F0030101436160FFF710FF696807463E
:1005800041F2883001290FD00229814619D027E095
:1005900021688903E9E78901E7E700BFFFF7FEFE6D
:1005A000C11B494501D918E081466068C0F381004C
:1005B0000128F3D118E000BFFFF7F0FEC11B494549
:1005C0000BD86068C0F381000228F5D10CE000BFB1
:1005D000FFF7E4FEC11B494502D90320BDE8F087BF
:1005E000606810F00C0FF3D1D8F80010404601F00D
:1005F0000701B1420BD9016821F0070131430160C5
:10060000006800F00700B04201D00120E6E728783A
:10061000400705D56068E96820F4E0600843606041
:100620002878000706D56068296920F4605040EA00
:10063000C100606000F01CF86168084AC1F3031152
:10064000515CC840064908600020FFF7C7FE002043
:10065000C4E70000002002400010024064120008BD
:100660000C00002001480068704700000C000020CA
:1006700012A185B00FC98DE80F0014A0144A0068BC
:1006800004905168134801F00C03042B10D0082B80
:100690000ED1C1F38343C9031DF803000AD5516885
:1006A00004AAC1F34041515C0A4A5043B0FBF1F047
:1006B00005B0704708494843FAE700000203040503
:1006C000060708090A0B0C0D0E0F1010010200009E
:1006D0000010024000127A0000093D002DE9F84F99
:1006E00004460078B94DC00748D06868C0F381005F
:1006F000012807D06868C0F38100022809D1686822
:10070000C00306D52868800338D5606800286FD0FC
:1007100034E06068B0F5803F0BD010B1B0F5A02F89
:1007200011D0286820F480302860286820F48020C8
:1007300002E0286840F480302860606888B1FFF7E4
:100740002DFE064609E0286840F480202860F0E786
:10075000FFF724FE801B642875D828688003F7D52E
:100760000CE0FFF71BFE064605E000BFFFF716FE94
:10077000801B6428F0D828688003F7D42078944E32
:1007800080074FF001094FF000083BD5686810F072
:100790000C0F07D06868C0F38100022809D168688F
:1007A000C00306D42868800714D5206901281FD10A
:1007B00010E02069B0B1C6F80090FFF7EFFD0746E2
:1007C00005E000BFFFF7EAFDC01B0228C4D8286877
:1007D0008007F7D52868616920F0F80040EAC10079
:1007E00028600FE0C6F80080FFF7D8FD074606E056
:1007F000E9E000BFFFF7D2FDC01B022823D828681C
:100800008007F7D4207800072CD57248A169D9B1A8
:10081000C0F80090FFF7C2FD074604E0FFF7BEFDF9
:10082000C01B02280FD8686A8007F7D56A484FF4C2
:10083000FA510068B0FBF1F0009000BF0098411E33
:100840000091FAD20EE080E0C0F80080FFF7A6FD2C
:10085000074604E0FFF7A2FDC01B022875D8686AAE
:100860008007F7D42078400760D5E8690027C000EA
:1008700008D4E86940F08050E861E869012700F099
:100880008050009055480168C90513D4016883461B
:1008900041F480710160FFF781FD824606E000BFF0
:1008A000FFF77CFDA0EB0A0064284ED8DBF80000BF
:1008B000C005F5D5E06801280AD008B1052813D095
:1008C000286A20F001002862286A20F0040002E073
:1008D000286A40F001002862E06841F2883B98B144
:1008E000FFF75CFD82460BE0286A40F004002862B6
:1008F000EEE700BFFFF752FDA0EB0A0159455AD8B9
:10090000286A8007F6D50CE0FFF748FD824605E02F
:10091000FFF744FDA0EB0A0159454CD8286A80072F
:10092000F6D41FB1E86920F08050E861E06988B32F
:100930006968C1F38101022945D00228C6F86080A8
:1009400004D0FFF72BFD044638E034E0FFF726FD26
:10095000074604E0FFF722FDC01B02282BD82868B9
:100960008001F7D4206AB0F5803F05D16868A1689E
:1009700020F4003008436860D4E90801084369683E
:1009800021F4741108436860C6F86090FFF706FD13
:10099000044606E015E000BFFFF700FD001B02283B
:1009A00009D828688001F7D50BE000BFFFF7F6FCF7
:1009B000001B022802D90320BDE8F88F28688001B7
:1009C000F4D40020F8E70120F6E700000010024010
:1009D00000004242800442420C00002000700040AF
:1009E0004FF0E0210428086903D020F004000861DA
:1009F000704740F00400FAE7704710B5401EB0F1B0
:100A0000807F01D3012010BD4FF0E02460610F21F1
:100A1000601700F043FA0020A06107202061002049
:100A200010BD10B5FFF7E8FF10BD10B590F83C20E1
:100A3000012A25D0012280F83C20CA688C6822F463
:100A4000407222434C6822F4806222430C6822F4F4
:100A5000006222430C6922F4805222434C6922F442
:100A6000005222438C6922F48042224322F4004146
:100A7000026800232143516480F83C30002010BDFF
:100A8000022010BD30B590F83C20012A20D0012270
:100A900080F83C20022380F83D3003685C6824F035
:100AA00070045C6003685C680D682C435C600368DC
:100AB0009C6824F080049C6003689C6849680C432F
:100AC0009C6080F83D20002180F83C10084630BD35
:100AD000022030BD10B5040003D094F83D0010B1E1
:100AE00007E0012010BD002084F83C00204600F003
:100AF0000DF8022084F83D00211D206800F040FA26
:100B0000012084F83D00002010BD000008B50068F9
:100B10000649884208D10648816941F40061816133
:100B2000806900F40060009008BD0000002C0140C6
:100B30000010024070B5044690F83C00012817D020
:100B4000012584F83C50022084F83D00206882682A
:100B500022F0770222F47F4282600868502837D062
:100B60000DDC202859D005DC88B3102841D151E094
:100B7000022070BD302853D040283AD13FE0602891
:100B80002ED070280BD0B0F5805F03D0B0F5005F99
:100B90002FD110E02068816821F0070115E0CB68B3
:100BA000D1E90121206800F03CFA2168886840F012
:100BB000770088601DE0CB68D1E90121206800F052
:100BC00030FA2068816841F48041816011E01EE0C4
:100BD000CA684968206800F0F9FA5021206806E0E8
:100BE000CA684968206800F002FB6021206800F0B4
:100BF00022FA84F83D50002084F83C0070BDCA6899
:100C00004968206800F0E2FA40212068EFE70021FF
:100C10002068ECE710212068E9E720212068E6E75A
:100C200030212068E3E700001FB5006806498842CC
:100C300008D1801500900220019003906946034876
:100C4000FFF7B8FA1FBD0000002C0140000801406A
:100C500070B5044690F83C000D4601280DD00126E1
:100C600084F83C60022084F83D0042B1042A18D088
:100C7000082A2AD00C2A4DD139E0022070BD206804
:100C800000F0E2F92068816941F008018161206883
:100C9000816921F004018161206881692A69114319
:100CA00011E0206800F000FA2068816941F40061D9
:100CB00081612068816921F4806181612068816996
:100CC0002A6941EA0221816124E0206800F022FAC9
:100CD0002068C16941F00801C1612068C16921F043
:100CE0000401C1612068C1692A69114311E02068CB
:100CF00000F044FA2068C16941F40061C1612068D4
:100D0000C16921F48061C1612068C1692A6941EA31
:100D10000221C16184F83D60002084F83C0070BD70
:100D200010B5040003D094F83D0010B107E0012095
:100D300010BD002084F83C00204600F00CF8022092
:100D400084F83D00211D206800F01AF9012084F884
:100D50003D00002010BD704710B504460068012218
:100D600000F054F908492068884202D007498842B7
:100D700003D1416C41F4004141642068016841F0B5
:100D800001010160002010BD002C01400034014031
:100D9000FEE70000094808B5816941F02001816142
:100DA000816901F020010091816941F004018161B4
:100DB000806900F00400009008BD000000100240AF
:100DC00010B5304894B02E49016041F61F4100240F
:100DD000C0E90114C721C0E9031444618461FFF72D
:100DE00079FE18B1422128A000F014FA4FF4805087
:100DF0000E900EA92348FFF79DFE18B1482122A0AE
:100E000000F008FA1F48FFF78BFF18B14D211EA014
:100E100000F000FA129412A91A481394FFF732FE58
:100E200018B1542118A000F0F5F9602000900F20AF
:100E3000CDE9010403940494059400226946114805
:100E40000694FFF705FF18B160210FA000F0E2F94A
:100E50000794089409944FF400500A94CDE90B408C
:100E600007A908480D94FFF7E0FD18B16C2106A012
:100E700000F0D0F90348FFF7D7FE14B010BD000012
:100E8000002C0140100000202E2E2F5372632F746F
:100E9000696D2E6300000000FEE770470907090E28
:100EA000002806DA00F00F0000F1E02080F8141DA1
:100EB000704700F1E02080F80014704770477047D9
:100EC00010B5FFF771FABDE81040FFF7AABD30B5C5
:100ED0008FB001210804CDE90010002402940225FE
:100EE0000491CDE907504FF4E01009906846FFF7F0
:100EF000F5FB00B1FEE70F20CDE90A054FF4806055
:100F0000CDE90C4002210AA80E94FFF701FB00B1C5
:100F1000FEE7FFF7A7FB4FF47A71B0FBF1F0FFF7A4
:100F20006CFD0420FFF75CFD00221146501EFFF708
:100F3000BDFA0FB030BD00000D48016841F001015D
:100F4000016041680B4A1140416001680A4A114042
:100F50000160016821F480210160416821F4FE01F3
:100F600041604FF41F0181600449C003086070476D
:100F7000001002400000FFF8FFFFF6FE08ED00E061
:100F8000F0B502681C4B1D4D1D4E1E4F1E4C4FF000
:100F9000804C984209D0A04207D0604505D0A842B5
:100FA00003D0B04201D0B84204D122F0700E4A689A
:100FB00042EA0E02984209D0A04207D0604505D00F
:100FC000A84203D0B04201D0B84203D122F4407508
:100FD000CA682A4322F080054A692A4302608A6867
:100FE000C2620A688262984201D0A04201D10969B6
:100FF000016301214161F0BD002C0140000400406B
:1010000000080040000C00400034014010B50123EE
:10101000046A8B409C430462036A8A401343036260
:1010200010BD10B5846842EA032224F47F440A43C9
:101030002243826010BD826822F070020A4342F0AF
:101040000701816070470000F0B5026A22F00102DA
:101050000262036A42688469124E24F073050C68C8
:101060002C4323F002058B682B430D4DA84201D081
:10107000B04205D123F00807CB683B4323F00403BB
:10108000A84201D0B04205D14D6922F44072154307
:101090008A692A4342608461496841630362F0BD02
:1010A000002C014000340140F0B5026A22F0100229
:1010B0000262026A436884690D6824F4E64444EAE3
:1010C00005248D6822F0200242EA05120F4D104ED1
:1010D000A84201D0B04206D1CF6822F0800242EA95
:1010E000071222F04002A84201D0B04207D14D6958
:1010F00023F4406343EA85038D6943EA8503436033
:101100008461496881630262F0BD0000002C0140E7
:1011100000340140F0B5026A22F480720262026A71
:101120004368C46922F4007224F073050C68124EFF
:101130002C438D6842EA05220E4DA84201D0B042F0
:1011400006D1CF6822F4006242EA072222F48062CC
:10115000A84201D0B04207D14D6923F4405343EA7D
:1011600005138D6943EA05134360C4614968C1638F
:101170000262F0BD002C01400034014030B5026A2B
:1011800022F480520262046A4268C3690D6823F443
:10119000E64343EA05238D6824F4005444EA053409
:1011A000084DA84202D0084DA84204D14D6922F44E
:1011B000804242EA85124260C36149680164046268
:1011C00030BD0000002C01400034014010B5036A1E
:1011D000046A24F001040462846924F0F00444EAFF
:1011E000021423F00A020A438461026210BD10B5A2
:1011F000036A23F0100303628369046A23F47043D3
:1012000043EA023224F0A00343EA01118261016241
:1012100010BDFEE7FEE702E008C8121F08C1002A61
:10122000FAD170477047002001E001C1121F002A67
:10123000FBD17047FFF7C0F8FFF749FEFFF7AAFDA3
:10124000FFF7BEFD00210648FFF786FD044C4FF472
:101250007A7514262846FEF79BFF20684663F9E757
:101260001000002000000000000000000102030444
:101270000607080994120008000000201000000072
:1012800016120008A41200081000002040040000FC
:1012900026120008010000001000000000000000FD
:0412A00000A24A045A
:0400000508000131BD
:00000001FF
